{
  "_format": "hh-sol-artifact-1",
  "contractName": "Raffle",
  "sourceName": "contracts/Raffle.sol",
  "abi": [
    {
      "inputs": [
        {
          "internalType": "address",
          "name": "vrfCoordinatorV2",
          "type": "address"
        },
        {
          "internalType": "uint256",
          "name": "entranceFee",
          "type": "uint256"
        },
        {
          "internalType": "bytes32",
          "name": "gasLane",
          "type": "bytes32"
        },
        {
          "internalType": "uint64",
          "name": "subscriptionId",
          "type": "uint64"
        },
        {
          "internalType": "uint256",
          "name": "callbackGasLimit",
          "type": "uint256"
        },
        {
          "internalType": "uint256",
          "name": "interval",
          "type": "uint256"
        }
      ],
      "stateMutability": "nonpayable",
      "type": "constructor"
    },
    {
      "inputs": [
        {
          "internalType": "address",
          "name": "have",
          "type": "address"
        },
        {
          "internalType": "address",
          "name": "want",
          "type": "address"
        }
      ],
      "name": "OnlyCoordinatorCanFulfill",
      "type": "error"
    },
    {
      "inputs": [],
      "name": "Raffle__NotEnoughETHEntered",
      "type": "error"
    },
    {
      "inputs": [],
      "name": "Raffle__RaffleNotOpen",
      "type": "error"
    },
    {
      "inputs": [],
      "name": "Raffle__TransferFailed",
      "type": "error"
    },
    {
      "inputs": [
        {
          "internalType": "uint256",
          "name": "currentBalance",
          "type": "uint256"
        },
        {
          "internalType": "uint256",
          "name": "numPlayers",
          "type": "uint256"
        },
        {
          "internalType": "uint256",
          "name": "raffleState",
          "type": "uint256"
        }
      ],
      "name": "Raffle__UpkeepNotNeeded",
      "type": "error"
    },
    {
      "anonymous": false,
      "inputs": [
        {
          "indexed": true,
          "internalType": "address",
          "name": "palyer",
          "type": "address"
        }
      ],
      "name": "RaffleEnter",
      "type": "event"
    },
    {
      "anonymous": false,
      "inputs": [
        {
          "indexed": true,
          "internalType": "uint256",
          "name": "requestId",
          "type": "uint256"
        }
      ],
      "name": "RuquestedRaffleWinner",
      "type": "event"
    },
    {
      "anonymous": false,
      "inputs": [
        {
          "indexed": true,
          "internalType": "address",
          "name": "player",
          "type": "address"
        }
      ],
      "name": "WinnerPicked",
      "type": "event"
    },
    {
      "inputs": [
        {
          "internalType": "bytes",
          "name": "",
          "type": "bytes"
        }
      ],
      "name": "checkUpkeep",
      "outputs": [
        {
          "internalType": "bool",
          "name": "upkeepNeeded",
          "type": "bool"
        },
        {
          "internalType": "bytes",
          "name": "",
          "type": "bytes"
        }
      ],
      "stateMutability": "view",
      "type": "function"
    },
    {
      "inputs": [],
      "name": "enterRaffle",
      "outputs": [],
      "stateMutability": "payable",
      "type": "function"
    },
    {
      "inputs": [],
      "name": "getEnteranceFee",
      "outputs": [
        {
          "internalType": "uint256",
          "name": "",
          "type": "uint256"
        }
      ],
      "stateMutability": "view",
      "type": "function"
    },
    {
      "inputs": [],
      "name": "getEntranceFee",
      "outputs": [
        {
          "internalType": "uint256",
          "name": "",
          "type": "uint256"
        }
      ],
      "stateMutability": "view",
      "type": "function"
    },
    {
      "inputs": [],
      "name": "getInterval",
      "outputs": [
        {
          "internalType": "uint256",
          "name": "",
          "type": "uint256"
        }
      ],
      "stateMutability": "view",
      "type": "function"
    },
    {
      "inputs": [],
      "name": "getLastTimeStamp",
      "outputs": [
        {
          "internalType": "uint256",
          "name": "",
          "type": "uint256"
        }
      ],
      "stateMutability": "view",
      "type": "function"
    },
    {
      "inputs": [],
      "name": "getNumWords",
      "outputs": [
        {
          "internalType": "uint256",
          "name": "",
          "type": "uint256"
        }
      ],
      "stateMutability": "pure",
      "type": "function"
    },
    {
      "inputs": [],
      "name": "getNumberOfPlayers",
      "outputs": [
        {
          "internalType": "uint256",
          "name": "",
          "type": "uint256"
        }
      ],
      "stateMutability": "view",
      "type": "function"
    },
    {
      "inputs": [
        {
          "internalType": "uint256",
          "name": "index",
          "type": "uint256"
        }
      ],
      "name": "getPlayer",
      "outputs": [
        {
          "internalType": "address",
          "name": "",
          "type": "address"
        }
      ],
      "stateMutability": "view",
      "type": "function"
    },
    {
      "inputs": [],
      "name": "getRaffleState",
      "outputs": [
        {
          "internalType": "enum Raffle.RaffleState",
          "name": "",
          "type": "uint8"
        }
      ],
      "stateMutability": "view",
      "type": "function"
    },
    {
      "inputs": [],
      "name": "getRecentWinner",
      "outputs": [
        {
          "internalType": "address",
          "name": "",
          "type": "address"
        }
      ],
      "stateMutability": "view",
      "type": "function"
    },
    {
      "inputs": [],
      "name": "getRequestConfirmations",
      "outputs": [
        {
          "internalType": "uint256",
          "name": "",
          "type": "uint256"
        }
      ],
      "stateMutability": "pure",
      "type": "function"
    },
    {
      "inputs": [
        {
          "internalType": "bytes",
          "name": "",
          "type": "bytes"
        }
      ],
      "name": "performUpkeep",
      "outputs": [],
      "stateMutability": "nonpayable",
      "type": "function"
    },
    {
      "inputs": [
        {
          "internalType": "uint256",
          "name": "requestId",
          "type": "uint256"
        },
        {
          "internalType": "uint256[]",
          "name": "randomWords",
          "type": "uint256[]"
        }
      ],
      "name": "rawFulfillRandomWords",
      "outputs": [],
      "stateMutability": "nonpayable",
      "type": "function"
    }
  ],
  "bytecode": "0x6101606040523480156200001257600080fd5b506040516200189538038062001895833981810160405281019062000038919062000186565b858073ffffffffffffffffffffffffffffffffffffffff1660808173ffffffffffffffffffffffffffffffffffffffff1660601b81525050508461014081815250508573ffffffffffffffffffffffffffffffffffffffff1660a08173ffffffffffffffffffffffffffffffffffffffff1660601b815250508360c081815250508267ffffffffffffffff1660e08167ffffffffffffffff1660c01b8152505081610100818152505060008060146101000a81548160ff021916908360018111156200010957620001086200027e565b5b0217905550426001819055508061012081815250505050505050506200031a565b6000815190506200013b81620002b2565b92915050565b6000815190506200015281620002cc565b92915050565b6000815190506200016981620002e6565b92915050565b600081519050620001808162000300565b92915050565b60008060008060008060c08789031215620001a657620001a5620002ad565b5b6000620001b689828a016200012a565b9650506020620001c989828a0162000158565b9550506040620001dc89828a0162000141565b9450506060620001ef89828a016200016f565b93505060806200020289828a0162000158565b92505060a06200021589828a0162000158565b9150509295509295509295565b60006200022f8262000240565b9050919050565b6000819050919050565b600073ffffffffffffffffffffffffffffffffffffffff82169050919050565b6000819050919050565b600067ffffffffffffffff82169050919050565b7f4e487b7100000000000000000000000000000000000000000000000000000000600052602160045260246000fd5b600080fd5b620002bd8162000222565b8114620002c957600080fd5b50565b620002d78162000236565b8114620002e357600080fd5b50565b620002f18162000260565b8114620002fd57600080fd5b50565b6200030b816200026a565b81146200031757600080fd5b50565b60805160601c60a05160601c60c05160e05160c01c6101005161012051610140516114fb6200039a600039600081816103400152818161043c01526107d60152600081816108580152610901015260006106e1015260006106be0152600061069d0152600061066101526000818161037c01526103d001526114fb6000f3fe6080604052600436106100dd5760003560e01c806353a2c19a1161007f57806391ad27b41161005957806391ad27b41461027e578063c1c244e8146102a9578063e55ae4e8146102d4578063fd6673f514610311576100dd565b806353a2c19a146101ea5780635f1b0fd8146102155780636e04ff0d14610240576100dd565b80632cfcc539116100bb5780632cfcc539146101615780634585e33b1461016b578063473f1ddc14610194578063535bf50f146101bf576100dd565b806309bc33a7146100e2578063115cbaf51461010d5780631fe543e314610138575b600080fd5b3480156100ee57600080fd5b506100f761033c565b6040516101049190611101565b60405180910390f35b34801561011957600080fd5b50610122610364565b60405161012f91906110e6565b60405180910390f35b34801561014457600080fd5b5061015f600480360381019061015a9190610eda565b61037a565b005b61016961043a565b005b34801561017757600080fd5b50610192600480360381019061018d9190610dea565b6105a9565b005b3480156101a057600080fd5b506101a96107a9565b6040516101b6919061101f565b60405180910390f35b3480156101cb57600080fd5b506101d46107d2565b6040516101e19190611101565b60405180910390f35b3480156101f657600080fd5b506101ff6107fa565b60405161020c9190611101565b60405180910390f35b34801561022157600080fd5b5061022a610809565b6040516102379190611101565b60405180910390f35b34801561024c57600080fd5b5061026760048036038101906102629190610e37565b610816565b604051610275929190611063565b60405180910390f35b34801561028a57600080fd5b506102936108fd565b6040516102a09190611101565b60405180910390f35b3480156102b557600080fd5b506102be610925565b6040516102cb9190611101565b60405180910390f35b3480156102e057600080fd5b506102fb60048036038101906102f69190610e80565b61092f565b604051610308919061101f565b60405180910390f35b34801561031d57600080fd5b50610326610977565b6040516103339190611101565b60405180910390f35b60007f0000000000000000000000000000000000000000000000000000000000000000905090565b60008060149054906101000a900460ff16905090565b7f000000000000000000000000000000000000000000000000000000000000000073ffffffffffffffffffffffffffffffffffffffff163373ffffffffffffffffffffffffffffffffffffffff161461042c57337f00000000000000000000000000000000000000000000000000000000000000006040517f1cf993f400000000000000000000000000000000000000000000000000000000815260040161042392919061103a565b60405180910390fd5b6104368282610984565b5050565b7f0000000000000000000000000000000000000000000000000000000000000000341015610494576040517fbd4e069500000000000000000000000000000000000000000000000000000000815260040160405180910390fd5b600060018111156104a8576104a76113db565b5b600060149054906101000a900460ff1660018111156104ca576104c96113db565b5b14610501576040517fd24a271400000000000000000000000000000000000000000000000000000000815260040160405180910390fd5b6002339080600181540180825580915050600190039060005260206000200160009091909190916101000a81548173ffffffffffffffffffffffffffffffffffffffff021916908373ffffffffffffffffffffffffffffffffffffffff1602179055503373ffffffffffffffffffffffffffffffffffffffff167f0805e1d667bddb8a95f0f09880cf94f403fb596ce79928d9f29b74203ba284d460405160405180910390a2565b60006105c360405180602001604052806000815250610816565b509050806106325747600280549050600060149054906101000a900460ff1660018111156105f4576105f36113db565b5b6040517f584327aa0000000000000000000000000000000000000000000000000000000081526004016106299392919061111c565b60405180910390fd5b6001600060146101000a81548160ff02191690836001811115610658576106576113db565b5b021790555060007f000000000000000000000000000000000000000000000000000000000000000073ffffffffffffffffffffffffffffffffffffffff16635d3b1d307f00000000000000000000000000000000000000000000000000000000000000007f000000000000000000000000000000000000000000000000000000000000000060037f000000000000000000000000000000000000000000000000000000000000000060016040518663ffffffff1660e01b8152600401610722959493929190611093565b602060405180830381600087803b15801561073c57600080fd5b505af1158015610750573d6000803e3d6000fd5b505050506040513d601f19601f820116820180604052508101906107749190610ead565b9050807f0cdbcbbdf86c9d84236713a2c2261dc6f4d8656b835a75e54808141962ee52a060405160405180910390a250505050565b60008060009054906101000a900473ffffffffffffffffffffffffffffffffffffffff16905090565b60007f0000000000000000000000000000000000000000000000000000000000000000905090565b6000600163ffffffff16905090565b6000600361ffff16905090565b6000606060008060149054906101000a900460ff16600181111561083d5761083c6113db565b5b60006001811115610851576108506113db565b5b14905060007f00000000000000000000000000000000000000000000000000000000000000006001544261088591906111fc565b119050600080600280549050119050600080471190508280156108a55750835b80156108ae5750805b80156108b75750815b9550856040518060400160405280600381526020017f30783000000000000000000000000000000000000000000000000000000000008152509550955050505050915091565b60007f0000000000000000000000000000000000000000000000000000000000000000905090565b6000600154905090565b6000600282815481106109455761094461140a565b5b9060005260206000200160009054906101000a900473ffffffffffffffffffffffffffffffffffffffff169050919050565b6000600280549050905090565b6000600280549050826000815181106109a05761099f61140a565b5b60200260200101516109b2919061134c565b90506000600282815481106109ca576109c961140a565b5b9060005260206000200160009054906101000a900473ffffffffffffffffffffffffffffffffffffffff169050806000806101000a81548173ffffffffffffffffffffffffffffffffffffffff021916908373ffffffffffffffffffffffffffffffffffffffff16021790555060008060146101000a81548160ff02191690836001811115610a5c57610a5b6113db565b5b0217905550600067ffffffffffffffff811115610a7c57610a7b611439565b5b604051908082528060200260200182016040528015610aaa5781602001602082028036833780820191505090505b5060029080519060200190610ac0929190610bb5565b504260018190555060008173ffffffffffffffffffffffffffffffffffffffff1647604051610aee9061100a565b60006040518083038185875af1925050503d8060008114610b2b576040519150601f19603f3d011682016040523d82523d6000602084013e610b30565b606091505b5050905080610b6b576040517fa1d04b3900000000000000000000000000000000000000000000000000000000815260040160405180910390fd5b8173ffffffffffffffffffffffffffffffffffffffff167f5b690ec4a06fe979403046eaeea5b3ce38524683c3001f662c8b5a829632f7df60405160405180910390a25050505050565b828054828255906000526020600020908101928215610c2e579160200282015b82811115610c2d5782518260006101000a81548173ffffffffffffffffffffffffffffffffffffffff021916908373ffffffffffffffffffffffffffffffffffffffff16021790555091602001919060010190610bd5565b5b509050610c3b9190610c3f565b5090565b5b80821115610c58576000816000905550600101610c40565b5090565b6000610c6f610c6a84611178565b611153565b90508083825260208201905082856020860282011115610c9257610c91611472565b5b60005b85811015610cc25781610ca88882610dc0565b845260208401935060208301925050600181019050610c95565b5050509392505050565b6000610cdf610cda846111a4565b611153565b905082815260208101848484011115610cfb57610cfa611477565b5b610d068482856112d9565b509392505050565b600082601f830112610d2357610d2261146d565b5b8135610d33848260208601610c5c565b91505092915050565b60008083601f840112610d5257610d5161146d565b5b8235905067ffffffffffffffff811115610d6f57610d6e611468565b5b602083019150836001820283011115610d8b57610d8a611472565b5b9250929050565b600082601f830112610da757610da661146d565b5b8135610db7848260208601610ccc565b91505092915050565b600081359050610dcf816114ae565b92915050565b600081519050610de4816114ae565b92915050565b60008060208385031215610e0157610e00611481565b5b600083013567ffffffffffffffff811115610e1f57610e1e61147c565b5b610e2b85828601610d3c565b92509250509250929050565b600060208284031215610e4d57610e4c611481565b5b600082013567ffffffffffffffff811115610e6b57610e6a61147c565b5b610e7784828501610d92565b91505092915050565b600060208284031215610e9657610e95611481565b5b6000610ea484828501610dc0565b91505092915050565b600060208284031215610ec357610ec2611481565b5b6000610ed184828501610dd5565b91505092915050565b60008060408385031215610ef157610ef0611481565b5b6000610eff85828601610dc0565b925050602083013567ffffffffffffffff811115610f2057610f1f61147c565b5b610f2c85828601610d0e565b9150509250929050565b610f3f81611230565b82525050565b610f4e81611242565b82525050565b610f5d8161124e565b82525050565b6000610f6e826111d5565b610f7881856111e0565b9350610f888185602086016112e8565b610f9181611486565b840191505092915050565b610fa5816112c7565b82525050565b6000610fb86000836111f1565b9150610fc382611497565b600082019050919050565b610fd78161126b565b82525050565b610fe681611299565b82525050565b610ff5816112a3565b82525050565b611004816112b3565b82525050565b600061101582610fab565b9150819050919050565b60006020820190506110346000830184610f36565b92915050565b600060408201905061104f6000830185610f36565b61105c6020830184610f36565b9392505050565b60006040820190506110786000830185610f45565b818103602083015261108a8184610f63565b90509392505050565b600060a0820190506110a86000830188610f54565b6110b56020830187610ffb565b6110c26040830186610fce565b6110cf6060830185610fec565b6110dc6080830184610fec565b9695505050505050565b60006020820190506110fb6000830184610f9c565b92915050565b60006020820190506111166000830184610fdd565b92915050565b60006060820190506111316000830186610fdd565b61113e6020830185610fdd565b61114b6040830184610fdd565b949350505050565b600061115d61116e565b9050611169828261131b565b919050565b6000604051905090565b600067ffffffffffffffff82111561119357611192611439565b5b602082029050602081019050919050565b600067ffffffffffffffff8211156111bf576111be611439565b5b6111c882611486565b9050602081019050919050565b600081519050919050565b600082825260208201905092915050565b600081905092915050565b600061120782611299565b915061121283611299565b9250828210156112255761122461137d565b5b828203905092915050565b600061123b82611279565b9050919050565b60008115159050919050565b6000819050919050565b60008190506112668261149a565b919050565b600061ffff82169050919050565b600073ffffffffffffffffffffffffffffffffffffffff82169050919050565b6000819050919050565b600063ffffffff82169050919050565b600067ffffffffffffffff82169050919050565b60006112d282611258565b9050919050565b82818337600083830152505050565b60005b838110156113065780820151818401526020810190506112eb565b83811115611315576000848401525b50505050565b61132482611486565b810181811067ffffffffffffffff8211171561134357611342611439565b5b80604052505050565b600061135782611299565b915061136283611299565b925082611372576113716113ac565b5b828206905092915050565b7f4e487b7100000000000000000000000000000000000000000000000000000000600052601160045260246000fd5b7f4e487b7100000000000000000000000000000000000000000000000000000000600052601260045260246000fd5b7f4e487b7100000000000000000000000000000000000000000000000000000000600052602160045260246000fd5b7f4e487b7100000000000000000000000000000000000000000000000000000000600052603260045260246000fd5b7f4e487b7100000000000000000000000000000000000000000000000000000000600052604160045260246000fd5b600080fd5b600080fd5b600080fd5b600080fd5b600080fd5b600080fd5b6000601f19601f8301169050919050565b50565b600281106114ab576114aa6113db565b5b50565b6114b781611299565b81146114c257600080fd5b5056fea264697066735822122083c519f9687c9ce113d1004888a6ef7d0ed518a5a549dd0deb666215ddc4cf9f64736f6c63430008070033",
  "linkReferences": {},
  "deployedLinkReferences": {}
}